:1001D50060406040404040403940394040404840E0
:1001E50048404C404C4055405540604040404040A0
:1001F500484048404C404C405540404040404840B5
:1002050048404C404C40554000FF40FF404C20408A
:10021500203920FF2040203920FF20402039203080
:1002250020402039204C20FF204C2040203920FF41
:100235002040203920FF2040203920262030202B47
:10024500203920FF204C2040203920FF2040203934
:1002550020FF20402039203020402039204C2040EC
:1002650020602055204C403040394026402B202628
:10027500102B1030202B203940FF403940394039B0
:1002850040391030102B10261039403940392040A4
:100295002040203920394039403940391030102B61
:1002A50010261039403940392024202420262039B1
:1002B5004039403940391030102B1026103940395B
:1002C50040392040204020392039403940394039D3
:1002D5001030102B1026101C40FF104020402039F4
:1002E500203940006040604040404040394039403E
:1002F5004040484048404C404C4055405540604087
:1003050040404040484048404C404C4055404040AB
:100315004040484048404C404C40554000736D615A
:100325006C6C2073746172730000000000000000A3
:10033500006861707079206C616E640000000000D7
:10034500000000000068617070792062697274684D
:1003550064617900000000000077656C636F6D656E
:0D03650020746F20757365202100000000DA
:0C06800002090000020B0000020D000047
:03069700DFFE2261
:10063500AE07AF061EEF600C7FF51206977FF51229
:05064500069780EE2283
:10064A0075A0FFC296D295D29400E5A0339200C25B
:03065A0094A20067
:01065D00227A
:070607007F051206357F3864
:10060E0012064A40FBC296C295D2948FA000C294A5
:01061E0022B9
:10065E0012064A40FBD296C295D2948FA000C29445
:01066E002269
:0A068D007F0112060E7F05020635FC
:0D05B100E50A75F014A42421F9E4FA0DFF09
:1005BE00AE07EEBD01042480800224C0FF12060E99
:1005CE00120104FF600C12065E740129F9E43AFA76
:0305DE0080EE228A
:10066F00AE07EEBD01042480800224C0FF12060EE7
:01067F002258
:1005E1007F3812060E1206071206071206077F0849
:1005F10012060E7F0112060E7F0612060E1F12064C
:06060100357F0C02060E1D
:1004670078217C007D007BFF7A0379227E007F3C28
:100477001200DE785D7C007D007BFF7A03795E7E6B
:10048700007F141200DE75890175A882758CD875F6
:100497008AEFD28C1205E120B4127F647E00120627
:1004A7001F20B408050AE50A70020509AE09AF0A5C
:1004B7007C007D0312014AEC70A6ED1460221460E3
:1004C7003E2402709B12068D7B007A00795D7D01C8
:1004D700E4FF1205BE1205B17BFF7A0179D58019B9
:1004E70012068D7B007A00795D7D01E4FF1205BE5F
:1004F7001205B17BFF7A02790E12037202046712AA
:10050700068D7B007A00795D7D01E4FF1205BE123E
:0E05170005B17BFF7A0279E9120372020467D4
:03000B00020003ED
:07000300758CD8758AEF32FD
:10061F00EF1FAA0670011E4A600BE4FDEDC394782C
:05062F0050EE0D80F704
:0106340022A3
:060372008B718A72897391
:10037800E4F574F57585758202044EE5767003021E
:1003880004590575E57570020574AB71AA72A973F5
:10039800F58285748312011DF508E576F46046E45C
:1003A800F50BF50CE50875F018A4FFC3E50C9FE5FF
:1003B8000B95F0502CB293E4F50DF50EE57675F03B
:1003C80002A4FFC3E50E9FE50D95F0500A050EE562
:1003D8000E70E9050D80E5050CE50C70C7050B806E
:1003E800C3C2938042C293E4F50BF50CE50875F09F
:1003F80018A4FFC3E50C9FE50B95F0502AE4F50D12
:10040800F50EE57675F002A4FFC3E50E9FE50D95A0
:10041800F0500A050EE50E70E9050D80E5050CE5BE
:100428000C70C9050B80C5E4F50BF50CF50DF50E40
:100438007F4BFE12061F0575E57570020574AB71DA
:10044800AA72A973F58285748312011DF5760203D9
:0E04580083050AE50A70020509E4F574F575DE
:010466002273
:03000000020525D1
:0C052500787FE4F6D8FD75817602056C45
:10000E00E709F608DFFA8046E709F208DFFA803ED4
:10001E0088828C83E709F0A3DFFA8032E309F608C1
:10002E00DFFA8078E309F208DFFA807088828C8329
:10003E00E309F0A3DFFA806489828A83E0A3F608DD
:10004E00DFFA805889828A83E0A3F208DFFA804CB7
:10005E0080D280FA80C680D4806980F2803380108E
:10006E0080A680EA809A80A880DA80E280CA8033F7
:10007E0089828A83ECFAE493A3C8C582C8CCC5836F
:10008E00CCF0A3C8C582C8CCC583CCDFE9DEE7803F
:10009E000D89828A83E493A3F608DFF9ECFAA9F0BE
:1000AE00EDFB2289828A83ECFAE0A3C8C582C8CC14
:1000BE00C583CCF0A3C8C582C8CCC583CCDFEADE2D
:1000CE00E880DB89828A83E493A3F208DFF980CC8F
:1000DE0088F0EF60010E4E60C388F0ED2402B40488
:1000EE000050B9F582EB2402B4040050AF2323452F
:0600FE00822390005E73F6
:10010400BB010689828A83E0225002E722BBFE02F9
:09011400E32289828A83E493222C
:10011D00BB010CE58229F582E5833AF583E0225097
:10012D0006E92582F8E622BBFE06E92582F8E222E1
:0D013D00E58229F582E5833AF583E49322FB
:10014A00C2D5EC30E709B2D5E4C39DFDE49CFCEED0
:10015A0030E715B2D5E4C39FFFE49EFE120180C3C7
:10016A00E49DFDE49CFC800312018030D507C3E4C2
:06017A009FFFE49EFE223F
:10053100020467E493A3F8E493A34003F68001F275
:1005410008DFF48029E493A3F85407240CC8C333CB
:10055100C4540F4420C8834004F456800146F6DF9A
:10056100E4800B0102040810204080900680E47EA4
:10057100019360BCA3FF543F30E509541FFEE4938F
:10058100A360010ECF54C025E060A840B8E493A356
:10059100FAE493A3F8E493A3C8C582C8CAC583CA81
:1005A100F0A3C8C582C8CAC583CADFE9DEE780BE39
:01068C00006D
:10018000BC000BBE0029EF8DF084FFADF022E4CC63
:10019000F875F008EF2FFFEE33FEEC33FCEE9DEC2C
:1001A000984005FCEE9DFE0FD5F0E9E4CEFD22ED72
:1001B000F8F5F0EE8420D21CFEADF075F008EF2FBC
:1001C000FFED33FD4007985006D5F0F222C398FDAD
:0501D0000FD5F0EA224A
:00000001FF
